{"abi":[{"type":"constructor","inputs":[],"stateMutability":"nonpayable"},{"type":"function","name":"UPGRADE_INTERFACE_VERSION","inputs":[],"outputs":[{"name":"","type":"string","internalType":"string"}],"stateMutability":"view"},{"type":"function","name":"balance","inputs":[{"name":"","type":"address","internalType":"address"},{"name":"","type":"address","internalType":"address"}],"outputs":[{"name":"","type":"uint256","internalType":"uint256"}],"stateMutability":"view"},{"type":"function","name":"buy","inputs":[{"name":"persona","type":"address","internalType":"address"},{"name":"amount","type":"uint256","internalType":"uint256"},{"name":"rewardRatio","type":"uint256","internalType":"uint256"},{"name":"holdingRewardNonce","type":"uint256","internalType":"uint256"},{"name":"holdingRewardSignature","type":"bytes","internalType":"bytes"}],"outputs":[],"stateMutability":"payable"},{"type":"function","name":"calculateHoldingReward","inputs":[{"name":"baseAmount","type":"uint256","internalType":"uint256"},{"name":"rewardRatio","type":"uint256","internalType":"uint256"},{"name":"nonce","type":"uint256","internalType":"uint256"},{"name":"signature","type":"bytes","internalType":"bytes"}],"outputs":[{"name":"","type":"uint256","internalType":"uint256"}],"stateMutability":"nonpayable"},{"type":"function","name":"getBuyPrice","inputs":[{"name":"persona","type":"address","internalType":"address"},{"name":"amount","type":"uint256","internalType":"uint256"}],"outputs":[{"name":"","type":"uint256","internalType":"uint256"}],"stateMutability":"view"},{"type":"function","name":"getBuyPriceAfterFee","inputs":[{"name":"persona","type":"address","internalType":"address"},{"name":"amount","type":"uint256","internalType":"uint256"}],"outputs":[{"name":"","type":"uint256","internalType":"uint256"}],"stateMutability":"view"},{"type":"function","name":"getPrice","inputs":[{"name":"_supply","type":"uint256","internalType":"uint256"},{"name":"amount","type":"uint256","internalType":"uint256"}],"outputs":[{"name":"","type":"uint256","internalType":"uint256"}],"stateMutability":"view"},{"type":"function","name":"getSellPrice","inputs":[{"name":"persona","type":"address","internalType":"address"},{"name":"amount","type":"uint256","internalType":"uint256"}],"outputs":[{"name":"","type":"uint256","internalType":"uint256"}],"stateMutability":"view"},{"type":"function","name":"getSellPriceAfterFee","inputs":[{"name":"persona","type":"address","internalType":"address"},{"name":"amount","type":"uint256","internalType":"uint256"}],"outputs":[{"name":"","type":"uint256","internalType":"uint256"}],"stateMutability":"view"},{"type":"function","name":"holdingVerifier","inputs":[],"outputs":[{"name":"","type":"address","internalType":"address"}],"stateMutability":"view"},{"type":"function","name":"initialize","inputs":[{"name":"_protocolFeeRecipient","type":"address","internalType":"address payable"},{"name":"_protocolFeeRate","type":"uint256","internalType":"uint256"},{"name":"_personaOwnerFeeRate","type":"uint256","internalType":"uint256"},{"name":"_priceIncrementPerFragment","type":"uint256","internalType":"uint256"},{"name":"_holdingVerifier","type":"address","internalType":"address"}],"outputs":[],"stateMutability":"nonpayable"},{"type":"function","name":"nonces","inputs":[{"name":"","type":"address","internalType":"address"}],"outputs":[{"name":"","type":"uint256","internalType":"uint256"}],"stateMutability":"view"},{"type":"function","name":"owner","inputs":[],"outputs":[{"name":"","type":"address","internalType":"address"}],"stateMutability":"view"},{"type":"function","name":"personaOwnerFeeRate","inputs":[],"outputs":[{"name":"","type":"uint256","internalType":"uint256"}],"stateMutability":"view"},{"type":"function","name":"priceIncrementPerFragment","inputs":[],"outputs":[{"name":"","type":"uint256","internalType":"uint256"}],"stateMutability":"view"},{"type":"function","name":"protocolFeeRate","inputs":[],"outputs":[{"name":"","type":"uint256","internalType":"uint256"}],"stateMutability":"view"},{"type":"function","name":"protocolFeeRecipient","inputs":[],"outputs":[{"name":"","type":"address","internalType":"address payable"}],"stateMutability":"view"},{"type":"function","name":"proxiableUUID","inputs":[],"outputs":[{"name":"","type":"bytes32","internalType":"bytes32"}],"stateMutability":"view"},{"type":"function","name":"renounceOwnership","inputs":[],"outputs":[],"stateMutability":"nonpayable"},{"type":"function","name":"sell","inputs":[{"name":"persona","type":"address","internalType":"address"},{"name":"amount","type":"uint256","internalType":"uint256"},{"name":"rewardRatio","type":"uint256","internalType":"uint256"},{"name":"holdingRewardNonce","type":"uint256","internalType":"uint256"},{"name":"holdingRewardSignature","type":"bytes","internalType":"bytes"}],"outputs":[],"stateMutability":"nonpayable"},{"type":"function","name":"setPersonaOwnerFeeRate","inputs":[{"name":"_rate","type":"uint256","internalType":"uint256"}],"outputs":[],"stateMutability":"nonpayable"},{"type":"function","name":"supply","inputs":[{"name":"","type":"address","internalType":"address"}],"outputs":[{"name":"","type":"uint256","internalType":"uint256"}],"stateMutability":"view"},{"type":"function","name":"transferOwnership","inputs":[{"name":"newOwner","type":"address","internalType":"address"}],"outputs":[],"stateMutability":"nonpayable"},{"type":"function","name":"updateHoldingVerifier","inputs":[{"name":"_verifier","type":"address","internalType":"address"}],"outputs":[],"stateMutability":"nonpayable"},{"type":"function","name":"updateProtocolFeeRate","inputs":[{"name":"_rate","type":"uint256","internalType":"uint256"}],"outputs":[],"stateMutability":"nonpayable"},{"type":"function","name":"updateProtocolFeeRecipient","inputs":[{"name":"_protocolFeeRecipient","type":"address","internalType":"address payable"}],"outputs":[],"stateMutability":"nonpayable"},{"type":"function","name":"upgradeToAndCall","inputs":[{"name":"newImplementation","type":"address","internalType":"address"},{"name":"data","type":"bytes","internalType":"bytes"}],"outputs":[],"stateMutability":"payable"},{"type":"event","name":"HoldingVerifierUpdated","inputs":[{"name":"verifier","type":"address","indexed":true,"internalType":"address"}],"anonymous":false},{"type":"event","name":"Initialized","inputs":[{"name":"version","type":"uint64","indexed":false,"internalType":"uint64"}],"anonymous":false},{"type":"event","name":"OwnershipTransferred","inputs":[{"name":"previousOwner","type":"address","indexed":true,"internalType":"address"},{"name":"newOwner","type":"address","indexed":true,"internalType":"address"}],"anonymous":false},{"type":"event","name":"PersonaOwnerFeeRateUpdated","inputs":[{"name":"rate","type":"uint256","indexed":false,"internalType":"uint256"}],"anonymous":false},{"type":"event","name":"ProtocolFeeRateUpdated","inputs":[{"name":"rate","type":"uint256","indexed":false,"internalType":"uint256"}],"anonymous":false},{"type":"event","name":"ProtocolFeeRecipientUpdated","inputs":[{"name":"protocolFeeRecipient","type":"address","indexed":true,"internalType":"address"}],"anonymous":false},{"type":"event","name":"TradeExecuted","inputs":[{"name":"trader","type":"address","indexed":true,"internalType":"address"},{"name":"persona","type":"address","indexed":true,"internalType":"address"},{"name":"isBuy","type":"bool","indexed":true,"internalType":"bool"},{"name":"amount","type":"uint256","indexed":false,"internalType":"uint256"},{"name":"price","type":"uint256","indexed":false,"internalType":"uint256"},{"name":"protocolFee","type":"uint256","indexed":false,"internalType":"uint256"},{"name":"personaFee","type":"uint256","indexed":false,"internalType":"uint256"},{"name":"holdingReward","type":"uint256","indexed":false,"internalType":"uint256"},{"name":"supply","type":"uint256","indexed":false,"internalType":"uint256"}],"anonymous":false},{"type":"event","name":"Upgraded","inputs":[{"name":"implementation","type":"address","indexed":true,"internalType":"address"}],"anonymous":false},{"type":"error","name":"AddressEmptyCode","inputs":[{"name":"target","type":"address","internalType":"address"}]},{"type":"error","name":"ECDSAInvalidSignature","inputs":[]},{"type":"error","name":"ECDSAInvalidSignatureLength","inputs":[{"name":"length","type":"uint256","internalType":"uint256"}]},{"type":"error","name":"ECDSAInvalidSignatureS","inputs":[{"name":"s","type":"bytes32","internalType":"bytes32"}]},{"type":"error","name":"ERC1967InvalidImplementation","inputs":[{"name":"implementation","type":"address","internalType":"address"}]},{"type":"error","name":"ERC1967NonPayable","inputs":[]},{"type":"error","name":"FailedCall","inputs":[]},{"type":"error","name":"FeeRateExceedsMaximum","inputs":[]},{"type":"error","name":"InsufficientBalance","inputs":[{"name":"balance","type":"uint256","internalType":"uint256"},{"name":"needed","type":"uint256","internalType":"uint256"}]},{"type":"error","name":"InsufficientBalance","inputs":[]},{"type":"error","name":"InsufficientPayment","inputs":[]},{"type":"error","name":"InvalidAmount","inputs":[]},{"type":"error","name":"InvalidInitialization","inputs":[]},{"type":"error","name":"InvalidNonce","inputs":[]},{"type":"error","name":"InvalidProtocolFeeRecipient","inputs":[]},{"type":"error","name":"InvalidVerifier","inputs":[]},{"type":"error","name":"InvalidVerifierAddress","inputs":[]},{"type":"error","name":"NotInitializing","inputs":[]},{"type":"error","name":"OwnableInvalidOwner","inputs":[{"name":"owner","type":"address","internalType":"address"}]},{"type":"error","name":"OwnableUnauthorizedAccount","inputs":[{"name":"account","type":"address","internalType":"address"}]},{"type":"error","name":"ReentrancyGuardReentrantCall","inputs":[]},{"type":"error","name":"RewardRatioTooHigh","inputs":[]},{"type":"error","name":"UUPSUnauthorizedCallContext","inputs":[]},{"type":"error","name":"UUPSUnsupportedProxiableUUID","inputs":[{"name":"slot","type":"bytes32","internalType":"bytes32"}]}],"bytecode":{"object":"0x60a06040523461003e5761001161004d565b610019610043565b6133736102d28239608051818181612373015281816123d801526125a9015261337390f35b610049565b60405190565b5f80fd5b61005561005f565b61005d6101a8565b565b6100676100ab565b565b60018060a01b031690565b90565b61008b61008661009092610069565b610074565b610069565b90565b61009c90610077565b90565b6100a890610093565b90565b6100b43061009f565b608052565b60401c90565b60ff1690565b6100d16100d6916100b9565b6100bf565b90565b6100e390546100c5565b90565b5f0190565b5f1c90565b60018060401b031690565b61010761010c916100eb565b6100f0565b90565b61011990546100fb565b90565b60018060401b031690565b5f1b90565b9061013d60018060401b0391610127565b9181191691161790565b61015b6101566101609261011c565b610074565b61011c565b90565b90565b9061017b61017661018292610147565b610163565b825461012c565b9055565b61018f9061011c565b9052565b91906101a6905f60208501940190610186565b565b6101b0610260565b6101bb5f82016100d9565b610244576101ca5f820161010f565b6101e26101dc60018060401b0361011c565b9161011c565b036101eb575b50565b6101fe905f60018060401b039101610166565b60018060401b0361023b7fc7f505b2f371ae2175ee4913f4499e1f2633a7b5936321eed1cdaeb6115181d291610232610043565b91829182610193565b0390a15f6101e8565b5f63f92ee8a960e01b81528061025c600482016100e6565b0390fd5b6102686102bd565b90565b5f90565b90565b90565b61028961028461028e9261026f565b610127565b610272565b90565b6102ba7ff0c57e16840df040f15088dc2f81fe391c3923bec73e23a9662efc9c229c6a00610275565b90565b6102c561026b565b506102ce610291565b9056fe60806040526004361015610013575b610e58565b61001d5f356101cc565b80630f026f6d146101c757806319ae58f0146101c25780631c0144de146101bd5780631df47f80146101b85780632267a89c146101b3578063247d525e146101ae5780634635256e146101a95780634f1ef286146101a457806352d1902d1461019f57806358f858801461019a5780635cf4ee91146101955780636340d55c1461019057806364df049e1461018b5780636c28e349146101865780636fa54e4b14610181578063715018a61461017c5780637ecebe00146101775780638bfc7764146101725780638da5cb5b1461016d5780639ae71781146101685780639dc446d114610163578063ad3cb1cc1461015e578063b203bb9914610159578063d0796bc114610154578063d28b253e1461014f578063f2fde38b1461014a5763f5ca60dd0361000e57610e23565b610de1565b610dac565b610d6a565b610d34565b610c9b565b610b6a565b610af4565b610abf565b610a66565b610a31565b6109e5565b6109ac565b610916565b61088b565b6107f7565b6107c1565b61075f565b61071b565b6106bd565b610642565b610615565b610485565b610452565b6103d2565b61037a565b610293565b60e01c90565b60405190565b5f80fd5b5f80fd5b5f80fd5b60018060a01b031690565b6101f8906101e4565b90565b610204816101ef565b0361020b57565b5f80fd5b9050359061021c826101fb565b565b90565b61022a8161021e565b0361023157565b5f80fd5b9050359061024282610221565b565b919060408382031261026c5780610260610269925f860161020f565b93602001610235565b90565b6101dc565b61027a9061021e565b9052565b9190610291905f60208501940190610271565b565b346102c4576102c06102af6102a9366004610244565b90610f49565b6102b76101d2565b9182918261027e565b0390f35b6101d8565b906020828203126102e2576102df915f0161020f565b90565b6101dc565b90565b6102fe6102f9610303926101e4565b6102e7565b6101e4565b90565b61030f906102ea565b90565b61031b90610306565b90565b9061032890610312565b5f5260205260405f2090565b1c90565b90565b61034b9060086103509302610334565b610338565b90565b9061035e915461033b565b90565b610377906103726039915f9261031e565b610353565b90565b346103aa576103a66103956103903660046102c9565b610361565b61039d6101d2565b9182918261027e565b0390f35b6101d8565b906020828203126103c8576103c5915f01610235565b90565b6101dc565b5f0190565b34610400576103ea6103e53660046103af565b6110bb565b6103f26101d2565b806103fc816103cd565b0390f35b6101d8565b61040e906101e4565b90565b61041a81610405565b0361042157565b5f80fd5b9050359061043282610411565b565b9060208282031261044d5761044a915f01610425565b90565b6101dc565b346104805761046a610465366004610434565b6111ee565b6104726101d2565b8061047c816103cd565b0390f35b6101d8565b346104b6576104b26104a161049b366004610244565b9061121e565b6104a96101d2565b9182918261027e565b0390f35b6101d8565b5f80fd5b5f80fd5b601f801991011690565b634e487b7160e01b5f52604160045260245ffd5b906104eb906104c3565b810190811067ffffffffffffffff82111761050557604052565b6104cd565b9061051d6105166101d2565b92836104e1565b565b67ffffffffffffffff811161053d576105396020916104c3565b0190565b6104cd565b90825f939282370152565b9092919261056261055d8261051f565b61050a565b9381855260208501908284011161057e5761057c92610542565b565b6104bf565b9080601f830112156105a15781602061059e9335910161054d565b90565b6104bb565b91909160a081840312610610576105bf835f830161020f565b926105cd8160208401610235565b926105db8260408501610235565b926105e98360608301610235565b92608082013567ffffffffffffffff811161060b576106089201610583565b90565b6101e0565b6101dc565b61062c6106233660046105a6565b939290926112fc565b6106346101d2565b8061063e816103cd565b0390f35b346106735761066f61065e610658366004610244565b906113cf565b6106666101d2565b9182918261027e565b0390f35b6101d8565b9190916040818403126106b857610691835f830161020f565b92602082013567ffffffffffffffff81116106b3576106b09201610583565b90565b6101e0565b6101dc565b6106d16106cb366004610678565b90611437565b6106d96101d2565b806106e3816103cd565b0390f35b5f9103126106f157565b6101dc565b90565b610702906106f6565b9052565b9190610719905f602085019401906106f9565b565b3461074b5761072b3660046106e7565b6107476107366114b2565b61073e6101d2565b91829182610706565b0390f35b6101d8565b61075c60015f90610353565b90565b3461078f5761076f3660046106e7565b61078b61077a610750565b6107826101d2565b9182918261027e565b0390f35b6101d8565b91906040838203126107bc57806107b06107b9925f8601610235565b93602001610235565b90565b6101dc565b346107f2576107ee6107dd6107d7366004610794565b906114c5565b6107e56101d2565b9182918261027e565b0390f35b6101d8565b346108255761080f61080a3660046103af565b611587565b6108176101d2565b80610821816103cd565b0390f35b6101d8565b60018060a01b031690565b61084590600861084a9302610334565b61082a565b90565b906108589154610835565b90565b6108665f5f9061084d565b90565b61087290610405565b9052565b9190610889905f60208501940190610869565b565b346108bb5761089b3660046106e7565b6108b76108a661085b565b6108ae6101d2565b91829182610876565b0390f35b6101d8565b919060a083820312610911576108d8815f8501610425565b926108e68260208301610235565b9261090e6108f78460408501610235565b936109058160608601610235565b9360800161020f565b90565b6101dc565b34610948576109326109293660046108c0565b9392909261190b565b61093a6101d2565b80610944816103cd565b0390f35b6101d8565b906080828203126109a757610964815f8401610235565b926109728260208501610235565b926109808360408301610235565b92606082013567ffffffffffffffff81116109a25761099f9201610583565b90565b6101e0565b6101dc565b346109e0576109dc6109cb6109c236600461094d565b929190916119ff565b6109d36101d2565b9182918261027e565b0390f35b6101d8565b34610a13576109f53660046106e7565b6109fd611bc9565b610a056101d2565b80610a0f816103cd565b0390f35b6101d8565b610a2e90610a296003915f9261031e565b610353565b90565b34610a6157610a5d610a4c610a473660046102c9565b610a18565b610a546101d2565b9182918261027e565b0390f35b6101d8565b34610a9857610a82610a793660046105a6565b93929092611bd3565b610a8a6101d2565b80610a94816103cd565b0390f35b6101d8565b610aa6906101ef565b9052565b9190610abd905f60208501940190610a9d565b565b34610aef57610acf3660046106e7565b610aeb610ada611c8a565b610ae26101d2565b91829182610aaa565b0390f35b6101d8565b34610b2557610b21610b10610b0a366004610244565b90611ca8565b610b186101d2565b9182918261027e565b0390f35b6101d8565b60018060a01b031690565b610b45906008610b4a9302610334565b610b2a565b90565b90610b589154610b35565b90565b610b6760025f90610b4d565b90565b34610b9a57610b7a3660046106e7565b610b96610b85610b5b565b610b8d6101d2565b91829182610aaa565b0390f35b6101d8565b67ffffffffffffffff8111610bbd57610bb96020916104c3565b0190565b6104cd565b90610bd4610bcf83610b9f565b61050a565b918252565b5f7f352e302e30000000000000000000000000000000000000000000000000000000910152565b610c0a6005610bc2565b90610c1760208301610bd9565b565b610c21610c00565b90565b610c2c610c19565b90565b610c37610c24565b90565b5190565b60209181520190565b90825f9392825e0152565b610c71610c7a602093610c7f93610c6881610c3a565b93848093610c3e565b95869101610c47565b6104c3565b0190565b610c989160208201915f818403910152610c52565b90565b34610ccb57610cab3660046106e7565b610cc7610cb6610c2f565b610cbe6101d2565b91829182610c83565b0390f35b6101d8565b9190604083820312610cf85780610cec610cf5925f860161020f565b9360200161020f565b90565b6101dc565b90610d0790610312565b5f5260205260405f2090565b610d2c610d3192610d276038935f94610cfd565b61031e565b610353565b90565b34610d6557610d61610d50610d4a366004610cd0565b90610d13565b610d586101d2565b9182918261027e565b0390f35b6101d8565b34610d9857610d82610d7d3660046102c9565b611da6565b610d8a6101d2565b80610d94816103cd565b0390f35b6101d8565b610da960375f90610353565b90565b34610ddc57610dbc3660046106e7565b610dd8610dc7610d9d565b610dcf6101d2565b9182918261027e565b0390f35b6101d8565b34610e0f57610df9610df43660046102c9565b611e16565b610e016101d2565b80610e0b816103cd565b0390f35b6101d8565b610e2060365f90610353565b90565b34610e5357610e333660046106e7565b610e4f610e3e610e14565b610e466101d2565b9182918261027e565b0390f35b6101d8565b5f80fd5b5f90565b5f1c90565b610e71610e7691610e60565b610338565b90565b610e839054610e65565b90565b634e487b7160e01b5f52601160045260245ffd5b610ea9610eaf9193929361021e565b9261021e565b91610ebb83820261021e565b928184041490151715610eca57565b610e86565b90565b610ee6610ee1610eeb92610ecf565b6102e7565b61021e565b90565b634e487b7160e01b5f52601260045260245ffd5b610f0e610f149161021e565b9161021e565b908115610f1f570490565b610eee565b610f33610f399193929361021e565b9261021e565b8201809211610f4457565b610e86565b610fc991610f5f91610f59610e5c565b506113cf565b610fc4610f90610f7983610f736001610e79565b90610e9a565b610f8a670de0b6b3a7640000610ed2565b90610f02565b610fbe610fa784610fa16037610e79565b90610e9a565b610fb8670de0b6b3a7640000610ed2565b90610f02565b92610f24565b610f24565b90565b610fdd90610fd8611e21565b611039565b565b5f1b90565b90610ff05f1991610fdf565b9181191691161790565b61100e6110096110139261021e565b6102e7565b61021e565b90565b90565b9061102e61102961103592610ffa565b611016565b8254610fe4565b9055565b8061105461104e670de0b6b3a7640000610ed2565b9161021e565b1161109f57611064816037611019565b61109a7fed04daa5d736fa43050f342c6ea11e6d6b9fd1382af2abd8a3d37dbdaef016fa916110916101d2565b9182918261027e565b0390a1565b5f6301ce37c360e01b8152806110b7600482016103cd565b0390fd5b6110c490610fcc565b565b6110d7906110d2611e21565b611166565b565b90565b6110f06110eb6110f5926110d9565b6102e7565b6101e4565b90565b611101906110dc565b90565b61110d90610306565b90565b9061112160018060a01b0391610fdf565b9181191691161790565b611134906102ea565b90565b6111409061112b565b90565b90565b9061115b61115661116292611137565b611143565b8254611110565b9055565b8061118161117b6111765f6110f8565b6101ef565b91611104565b146111d257611190815f611146565b6111ba7fc1b5345cce283376356748dc57f2dfa7120431d016fc7ca9ba641bc65f91411d91611104565b906111c36101d2565b806111cd816103cd565b0390a2565b5f633106a0c760e01b8152806111ea600482016103cd565b0390fd5b6111f7906110c6565b565b61120861120e9193929361021e565b9261021e565b820391821161121957565b610e86565b61129e916112349161122e610e5c565b50611ca8565b61129961126561124e836112486001610e79565b90610e9a565b61125f670de0b6b3a7640000610ed2565b90610f02565b61129361127c846112766037610e79565b90610e9a565b61128d670de0b6b3a7640000610ed2565b90610f02565b926111f9565b6111f9565b90565b6112b56112b06112ba926110d9565b6102e7565b61021e565b90565b6112c760e061050a565b90565b906112d4906101ef565b9052565b906112e29061021e565b9052565b151590565b906112f5906112e6565b9052565b52565b9291928161131261130c5f6112a1565b9161021e565b14611394576113929461137b61138d946113725f976113698661136061133c611384998b906113cf565b919961135760019597999b61134f6112bd565b9e8f016112ca565b60208d016112d8565b60408b016112d8565b606089016112eb565b608087016112d8565b60a085016112d8565b60c083016112f9565b61232f565b565b5f63162908e360e11b8152806113ac600482016103cd565b0390fd5b90565b6113c76113c26113cc926113b0565b6102e7565b61021e565b90565b906113ef6113ea61140b936113e2610e5c565b50603961031e565b610e79565b906113fa6036610e79565b9061140560016113b3565b9261233a565b90565b906114209161141b612362565b611422565b565b906114359161143081612414565b61249a565b565b906114419161140e565b565b5f90565b61145890611453612598565b6114a6565b90565b90565b61147261146d6114779261145b565b610fdf565b6106f6565b90565b6114a37f360894a13ba1a3210667c828492db98dca3e2076cc3735a920a3ca505d382bbc61145e565b90565b506114af61147a565b90565b6114c26114bd611443565b611447565b90565b906114ef916114d2610e5c565b50906114de6036610e79565b906114e960016113b3565b92612615565b90565b611503906114fe611e21565b611505565b565b8061152061151a670de0b6b3a7640000610ed2565b9161021e565b1161156b57611530816001611019565b6115667f9d2a5010795914ccbdd5a4cdee6a9aa2addac5e44443b519897523b67ddfe9fc9161155d6101d2565b9182918261027e565b0390a1565b5f6301ce37c360e01b815280611583600482016103cd565b0390fd5b611590906114f2565b565b60401c90565b60ff1690565b6115aa6115af91611592565b611598565b90565b6115bc905461159e565b90565b67ffffffffffffffff1690565b6115d86115dd91610e60565b6115bf565b90565b6115ea90546115cc565b90565b67ffffffffffffffff1690565b61160e611609611613926110d9565b6102e7565b6115ed565b90565b61162a61162561162f926113b0565b6102e7565b6115ed565b90565b61163b90610306565b90565b9061165167ffffffffffffffff91610fdf565b9181191691161790565b61166f61166a611674926115ed565b6102e7565b6115ed565b90565b90565b9061168f61168a6116969261165b565b611677565b825461163e565b9055565b60401b90565b906116b468ff00000000000000009161169a565b9181191691161790565b6116c7906112e6565b90565b90565b906116e26116dd6116e9926116be565b6116ca565b82546116a0565b9055565b6116f690611616565b9052565b919061170d905f602085019401906116ed565b565b9193909261171b612698565b9461173061172a5f88016115b2565b156112e6565b9461173c5f88016115e0565b8061174f6117495f6115fa565b916115ed565b1480611869575b9061176a6117646001611616565b916115ed565b1480611841575b61177c9091156112e6565b9081611830575b50611814576117ac946117a16117996001611616565b5f8a0161167a565b86611802575b611870565b6117b4575b50565b6117c1905f8091016116cd565b60016117f97fc7f505b2f371ae2175ee4913f4499e1f2633a7b5936321eed1cdaeb6115181d2916117f06101d2565b918291826116fa565b0390a15f6117b1565b61180f60015f8a016116cd565b6117a7565b5f63f92ee8a960e01b81528061182c600482016103cd565b0390fd5b61183b9150156112e6565b5f611783565b5061177c61184e30611632565b3b61186161185b5f6112a1565b9161021e565b149050611771565b5086611756565b9361187e9294919091612860565b81611899611893670de0b6b3a7640000610ed2565b9161021e565b116118ef576118b4906118ad836037611019565b6036611019565b6118ea7fed04daa5d736fa43050f342c6ea11e6d6b9fd1382af2abd8a3d37dbdaef016fa916118e16101d2565b9182918261027e565b0390a1565b5f6301ce37c360e01b815280611907600482016103cd565b0390fd5b906119189493929161170f565b565b5190565b61192790610306565b90565b60601b90565b6119399061192a565b90565b61194590611930565b90565b611954611959916101ef565b61193c565b9052565b90565b61196c6119719161021e565b61195d565b9052565b60146119b8946119a8602080999895966119a085876119986119b099869c611948565b018092611960565b018092611948565b018092611960565b018092611960565b0190565b60200190565b6119ce6119d391610e60565b610b2a565b90565b6119e090546119c2565b90565b6119ec9061021e565b5f1981146119fa5760010190565b610e86565b919092611a0a610e5c565b50611a148161191a565b611a26611a205f6112a1565b9161021e565b14611b945783611a46611a40670de0b6b3a7640000610ed2565b9161021e565b11611b7857611a5f611a5a6003339061031e565b610e79565b611a71611a6b8461021e565b9161021e565b03611b5c57611ace611ad392611ab6611a893061191e565b611aa7469333908a9091611a9b6101d2565b96879560208701611975565b602082018103825203826104e1565b611ac8611ac28261191a565b916119bc565b2061286d565b6128a3565b611aee611ae8611ae360026119d6565b6101ef565b916101ef565b03611b4057611b3d91611b2691611b21611b0a6003339061031e565b611b1b611b1682610e79565b6119e3565b90611019565b610e9a565b611b37670de0b6b3a7640000610ed2565b90610f02565b90565b5f63baa3de5f60e01b815280611b58600482016103cd565b0390fd5b5f633ab3447f60e11b815280611b74600482016103cd565b0390fd5b5f6323b0721160e11b815280611b90600482016103cd565b0390fd5b50505050611ba15f6112a1565b90565b611bac611e21565b611bb4611bb6565b565b611bc7611bc25f6110f8565b6128c5565b565b611bd1611ba4565b565b92919281611be9611be35f6112a1565b9161021e565b14611c6a57611c6894611c51611c6394611c485f97611c3f86611c36611c13611c5a998b90611ca8565b9199611c2d8d9597999b611c256112bd565b9e8f016112ca565b60208d016112d8565b60408b016112d8565b606089016112eb565b608087016112d8565b60a085016112d8565b60c083016112f9565b61232f565b565b5f63162908e360e11b815280611c82600482016103cd565b0390fd5b5f90565b611c92611c86565b50611ca55f611c9f612931565b016119d6565b90565b90611cc8611cc3611ce493611cbb610e5c565b50603961031e565b610e79565b90611cd36036610e79565b90611cde60016113b3565b92612955565b90565b611cf890611cf3611e21565b611d1d565b565b90565b90611d12611d0d611d1992610312565b611cfa565b8254611110565b9055565b80611d38611d32611d2d5f6110f8565b6101ef565b916101ef565b14611d8a57611d48816002611cfd565b611d727f3988ebfb0c33faf605fb350301ca0a21968c8582d29bcbc1fe992b21e81a8e9091610312565b90611d7b6101d2565b80611d85816103cd565b0390a2565b5f63043103a360e21b815280611da2600482016103cd565b0390fd5b611daf90611ce7565b565b611dc290611dbd611e21565b611dc4565b565b80611ddf611dd9611dd45f6110f8565b6101ef565b916101ef565b14611def57611ded906128c5565b565b611e12611dfb5f6110f8565b5f918291631e4fbdf760e01b835260048301610aaa565b0390fd5b611e1f90611db1565b565b611e29611c8a565b611e42611e3c611e3761297b565b6101ef565b916101ef565b03611e4957565b611e6b611e5461297b565b5f91829163118cdaa760e01b835260048301610aaa565b0390fd5b611e8090611e7b612995565b611f39565b611e88612a05565b565b611e94905161021e565b90565b611ea190516112e6565b90565b611eae90516101ef565b90565b611eba9061112b565b90565b611ec9611ece91610e60565b61082a565b90565b611edb9054611ebd565b90565b9194611f26611f3092989795611f1c60a096611f12611f379a611f0860c08a019e5f8b0190610271565b6020890190610271565b6040870190610271565b6060850190610271565b6080830190610271565b0190610271565b565b611f72611f5b611f4b60408401611e8a565b611f556001610e79565b90610e9a565b611f6c670de0b6b3a7640000610ed2565b90610f02565b611fa5611f9d82611f8560808601611e8a565b611f9160a08701611e8a565b9060c0870151926119ff565b9182906111f9565b91611fe9611fe2611fcb611fbb60408501611e8a565b611fc56037610e79565b90610e9a565b611fdc670de0b6b3a7640000610ed2565b90610f02565b8390610f24565b92611ff660608301611e97565b5f146121e75761201c61201561200e60408501611e8a565b8390610f24565b8590610f24565b3461202f6120298361021e565b9161021e565b106121cb576120476120405f611ed1565b8390612ab6565b61205c6120555f8501611ea4565b8690612b42565b3461206f6120698361021e565b9161021e565b116121a8575b506120bd61208560208401611e8a565b6120b76120a86120a1603861209b5f8901611ea4565b90610cfd565b339061031e565b916120b283610e79565b610f24565b90611019565b6120fa6120cc60208401611e8a565b6120f46120e560396120df5f8801611ea4565b9061031e565b916120ef83610e79565b610f24565b90611019565b5b33906121085f8401611ea4565b926121a361211860608301611e97565b9561212560208401611e8a565b9261215461214f61213860408401611e8a565b969a93926121495f60399201611ea4565b9061031e565b610e79565b9161219161218b6121857f9ce8a552d9a28a585b4d3bd87da383f1f7ee25a97365977f122cf1b2a1fcaa4699610312565b99610312565b996116be565b9961219a6101d2565b96879687611ede565b0390a4565b6121c5906121bf6121b833611eb1565b91346111f9565b90612ab6565b5f612075565b5f63cd1c886760e01b8152806121e3600482016103cd565b0390fd5b61220f61220a61220360386121fd5f8701611ea4565b90610cfd565b339061031e565b610e79565b61222c61222661222160208601611e8a565b61021e565b9161021e565b106123135761226261225461224d61224660408601611e8a565b84906111f9565b86906111f9565b61225d33611eb1565b612ab6565b61227561226e5f611ed1565b8290612ab6565b61228a6122835f8401611ea4565b8590612b42565b6122d161229960208401611e8a565b6122cb6122bc6122b560386122af5f8901611ea4565b90610cfd565b339061031e565b916122c683610e79565b6111f9565b90611019565b61230e6122e060208401611e8a565b6123086122f960396122f35f8801611ea4565b9061031e565b9161230383610e79565b6111f9565b90611019565b6120fb565b5f631e9acf1760e31b81528061232b600482016103cd565b0390fd5b61233890611e6f565b565b91612353939192612349610e5c565b5092909192612615565b90565b61235f90610306565b90565b61236b30612356565b61239d6123977f00000000000000000000000000000000000000000000000000000000000000006101ef565b916101ef565b1480156123c7575b6123ab57565b5f63703e46dd60e11b8152806123c3600482016103cd565b0390fd5b506123d0612b9f565b6124026123fc7f00000000000000000000000000000000000000000000000000000000000000006101ef565b916101ef565b14156123a5565b50612412611e21565b565b61241d90612409565b565b612428906102ea565b90565b6124349061241f565b90565b61244090610306565b90565b60e01b90565b612452816106f6565b0361245957565b5f80fd5b9050519061246a82612449565b565b9060208282031261248557612482915f0161245d565b90565b6101dc565b6124926101d2565b3d5f823e3d90fd5b91906124c860206124b26124ad8661242b565b612437565b6352d1902d906124c06101d2565b938492612443565b825281806124d8600482016103cd565b03915afa80915f92612568575b50155f146125195750509060016124fa57505b565b612515905f918291634c9c8ce360e01b835260048301610aaa565b0390fd5b928361253461252e61252961147a565b6106f6565b916106f6565b0361254957612544929350612bc5565b6124f8565b612564845f918291632a87526960e21b835260048301610706565b0390fd5b61258a91925060203d8111612591575b61258281836104e1565b81019061246c565b905f6124e5565b503d612578565b6125a130612356565b6125d36125cd7f00000000000000000000000000000000000000000000000000000000000000006101ef565b916101ef565b036125da57565b5f63703e46dd60e11b8152806125f2600482016103cd565b0390fd5b90565b61260d612608612612926125f6565b6102e7565b61021e565b90565b9061268b61267b612690936126756126959796612630610e5c565b5061266f612668612660612658846126528d61264d8a8990610e9a565b610f02565b90610f24565b958990610f24565b928093610e9a565b8990610f02565b90610f24565b90610f24565b61268560026125f9565b90610f02565b610e9a565b610f02565b90565b6126a0612c99565b90565b906126b692916126b1612cad565b6126b8565b565b6126c133612cfe565b6126c9612d25565b6126d1612d39565b806126ec6126e66126e15f6110f8565b6101ef565b91611104565b14612844578261270c6127066127015f6110f8565b6101ef565b916101ef565b14612828578161272c612726670de0b6b3a7640000610ed2565b9161021e565b1161280c5761273b815f611146565b612746826001611019565b612751836002611cfd565b61277b7fc1b5345cce283376356748dc57f2dfa7120431d016fc7ca9ba641bc65f91411d91611104565b906127846101d2565b8061278e816103cd565b0390a26127c77f9d2a5010795914ccbdd5a4cdee6a9aa2addac5e44443b519897523b67ddfe9fc916127be6101d2565b9182918261027e565b0390a16127f47f3988ebfb0c33faf605fb350301ca0a21968c8582d29bcbc1fe992b21e81a8e9091610312565b906127fd6101d2565b80612807816103cd565b0390a2565b5f6301ce37c360e01b815280612824600482016103cd565b0390fd5b5f63043103a360e21b815280612840600482016103cd565b0390fd5b5f633106a0c760e01b81528061285c600482016103cd565b0390fd5b9061286b92916126a3565b565b612875611443565b507f19457468657265756d205369676e6564204d6573736167653a0a3332000000005f52601c52603c5f2090565b6128c2916128b9916128b3611c86565b50612d86565b90929192612e6e565b90565b6128cd612931565b6128e56128db5f83016119d6565b915f849101611cfd565b906129196129137f8be0079c531659141344cd1fd0a4f28419497f9722a3daafe3b4186f6b6457e093610312565b91610312565b916129226101d2565b8061292c816103cd565b0390a3565b7f9016d09d72d40fdae2fd8ceac6b6234c7706214fd39c1cd1e609a0528c19930090565b9161296f612978949293612967610e5c565b5084906111f9565b92909192612615565b90565b612983611c86565b503390565b61299260026125f9565b90565b61299d612f3f565b6129a85f8201610e79565b6129c16129bb6129b6612988565b61021e565b9161021e565b146129dc576129da905f6129d3612988565b9101611019565b565b5f633ee5aeb560e01b8152806129f4600482016103cd565b0390fd5b612a0260016113b3565b90565b612a20612a10612f3f565b5f612a196129f8565b9101611019565b565b612a2b90610306565b90565b916020612a4f929493612a4860408201965f830190610271565b0190610271565b565b905090565b612a615f8092612a51565b0190565b612a6e90612a56565b90565b90612a83612a7e8361051f565b61050a565b918252565b606090565b3d5f14612aa857612a9d3d612a71565b903d5f602084013e5b565b612ab0612a88565b90612aa6565b612abf30612a22565b31612ad2612acc8461021e565b9161021e565b10612b19575f91612ae38392611104565b90612aec6101d2565b9081612af781612a65565b03925af1612b0d612b06612a8d565b91156112e6565b612b145750565b612f63565b50612b2330612a22565b31612b3e5f92839263cf47918160e01b845260048401612a2e565b0390fd5b5f80612b58612b53612b7f94611eb1565b611104565b84612b616101d2565b9081612b6c81612a65565b03925af1612b78612a8d565b50156112e6565b612b87575b50565b612b9990612b945f611ed1565b612ab6565b5f612b84565b612ba7611c86565b50612bc25f612bbc612bb761147a565b612fa9565b016119d6565b90565b90612bcf82612fac565b81612bfa7fbc7cd75a20ee27fd9adebab32041f755214dbc6bffa90cc0225b39da2e5c2d3b91610312565b90612c036101d2565b80612c0d816103cd565b0390a2612c198161191a565b612c2b612c255f6112a1565b9161021e565b115f14612c3f57612c3b91613037565b505b565b5050612c49613001565b612c3d565b90565b612c65612c60612c6a92612c4e565b610fdf565b6106f6565b90565b612c967ff0c57e16840df040f15088dc2f81fe391c3923bec73e23a9662efc9c229c6a00612c51565b90565b612ca1611443565b50612caa612c6d565b90565b612cbe612cb861306a565b156112e6565b612cc457565b5f631afcd79f60e31b815280612cdc600482016103cd565b0390fd5b612cf190612cec612cad565b612cf3565b565b612cfc906130ed565b565b612d0790612ce0565b565b612d11612cad565b612d19612d1b565b565b612d23613127565b565b612d2d612d09565b565b612d37612cad565b565b612d41612d2f565b565b5f90565b90565b612d5e612d59612d6392612d47565b6102e7565b61021e565b90565b612d7a612d75612d7f9261021e565b610fdf565b6106f6565b90565b5f90565b919091612d91611c86565b50612d9a612d43565b50612da3611443565b50612dad8361191a565b612dc0612dba6041612d4a565b9161021e565b145f14612e0757612e009192612dd4611443565b50612ddd611443565b50612de6612d82565b506020810151606060408301519201515f1a9091926131bd565b9192909190565b50612e115f6110f8565b90612e25612e2060029461191a565b612d66565b91929190565b634e487b7160e01b5f52602160045260245ffd5b60041115612e4957565b612e2b565b90612e5882612e3f565b565b612e66612e6b91610e60565b610ffa565b90565b80612e81612e7b5f612e4e565b91612e4e565b145f14612e8c575050565b80612ea0612e9a6001612e4e565b91612e4e565b145f14612ec3575f63f645eedf60e01b815280612ebf600482016103cd565b0390fd5b80612ed7612ed16002612e4e565b91612e4e565b145f14612f0557612f01612eea83612e5a565b5f91829163fce698f760e01b83526004830161027e565b0390fd5b612f18612f126003612e4e565b91612e4e565b14612f205750565b612f3b905f9182916335e2f38360e21b835260048301610706565b0390fd5b7f9b779b17422d0df92223018b32b4d1fa46e071723d6817e2486d003becc55f0090565b612f6c8161191a565b612f7e612f785f6112a1565b9161021e565b115f14612f8d57602081519101fd5b5f63d6bda27560e01b815280612fa5600482016103cd565b0390fd5b90565b803b612fc0612fba5f6112a1565b9161021e565b14612fe257612fe0905f612fda612fd561147a565b612fa9565b01611cfd565b565b612ffd905f918291634c9c8ce360e01b835260048301610aaa565b0390fd5b3461301461300e5f6112a1565b9161021e565b1161301b57565b5f63b398979f60e01b815280613033600482016103cd565b0390fd5b5f8061306393613045612a88565b508390602081019051915af49061305a612a8d565b909190916132b9565b90565b5f90565b613072613066565b506130855f61307f612698565b016115b2565b90565b61309990613094612cad565b61309b565b565b806130b66130b06130ab5f6110f8565b6101ef565b916101ef565b146130c6576130c4906128c5565b565b6130e96130d25f6110f8565b5f918291631e4fbdf760e01b835260048301610aaa565b0390fd5b6130f690613088565b565b613100612cad565b61310861310a565b565b613125613115612f3f565b5f61311e6129f8565b9101611019565b565b61312f6130f8565b565b90565b61314861314361314d92613131565b6102e7565b61021e565b90565b60ff1690565b61315f90613150565b9052565b61319861319f9461318e606094989795613184608086019a5f8701906106f9565b6020850190613156565b60408301906106f9565b01906106f9565b565b6131b56131b06131ba926110d9565b610fdf565b6106f6565b90565b9392936131c8611c86565b506131d1612d43565b506131da611443565b506131e485612e5a565b6132166132107f7fffffffffffffffffffffffffffffff5d576e7357a4501ddfe92f46681b20a0613134565b9161021e565b116132a35790613239602094955f949392936132306101d2565b94859485613163565b838052039060015afa1561329e576132515f51610fdf565b8061326c6132666132615f6110f8565b6101ef565b916101ef565b14613282575f9161327c5f6131a1565b91929190565b5061328c5f6110f8565b6001916132985f6131a1565b91929190565b61248a565b5050506132af5f6110f8565b9060039291929190565b906132cd906132c6612a88565b50156112e6565b5f146132d95750612f63565b6132e28261191a565b6132f46132ee5f6112a1565b9161021e565b1480613322575b613303575090565b61331e905f918291639996b31560e01b835260048301610aaa565b0390fd5b50803b6133376133315f6112a1565b9161021e565b146132fb56fea2646970667358221220de3e4baa43386762fb8ec580684d789bff4ef5a2bdeedf09a30ef67b1fb9d1f164736f6c634300081e0033","linkReferences":{}},"methodIdentifiers":{"UPGRADE_INTERFACE_VERSION()":"ad3cb1cc","balance(address,address)":"b203bb99","buy(address,uint256,uint256,uint256,bytes)":"247d525e","calculateHoldingReward(uint256,uint256,uint256,bytes)":"6fa54e4b","getBuyPrice(address,uint256)":"4635256e","getBuyPriceAfterFee(address,uint256)":"0f026f6d","getPrice(uint256,uint256)":"5cf4ee91","getSellPrice(address,uint256)":"9ae71781","getSellPriceAfterFee(address,uint256)":"2267a89c","holdingVerifier()":"9dc446d1","initialize(address,uint256,uint256,uint256,address)":"6c28e349","nonces(address)":"7ecebe00","owner()":"8da5cb5b","personaOwnerFeeRate()":"d28b253e","priceIncrementPerFragment()":"f5ca60dd","protocolFeeRate()":"58f85880","protocolFeeRecipient()":"64df049e","proxiableUUID()":"52d1902d","renounceOwnership()":"715018a6","sell(address,uint256,uint256,uint256,bytes)":"8bfc7764","setPersonaOwnerFeeRate(uint256)":"1c0144de","supply(address)":"19ae58f0","transferOwnership(address)":"f2fde38b","updateHoldingVerifier(address)":"d0796bc1","updateProtocolFeeRate(uint256)":"6340d55c","updateProtocolFeeRecipient(address)":"1df47f80","upgradeToAndCall(address,bytes)":"4f1ef286"},"storageLayout":{"storage":[{"astId":56542,"contract":"src/social/PersonaFragments.sol:PersonaFragments","label":"protocolFeeRecipient","offset":0,"slot":"0","type":"t_address_payable"},{"astId":56544,"contract":"src/social/PersonaFragments.sol:PersonaFragments","label":"protocolFeeRate","offset":0,"slot":"1","type":"t_uint256"},{"astId":56546,"contract":"src/social/PersonaFragments.sol:PersonaFragments","label":"holdingVerifier","offset":0,"slot":"2","type":"t_address"},{"astId":56550,"contract":"src/social/PersonaFragments.sol:PersonaFragments","label":"nonces","offset":0,"slot":"3","type":"t_mapping(t_address,t_uint256)"},{"astId":56554,"contract":"src/social/PersonaFragments.sol:PersonaFragments","label":"__gap","offset":0,"slot":"4","type":"t_array(t_uint256)50_storage"},{"astId":56826,"contract":"src/social/PersonaFragments.sol:PersonaFragments","label":"priceIncrementPerFragment","offset":0,"slot":"54","type":"t_uint256"},{"astId":56828,"contract":"src/social/PersonaFragments.sol:PersonaFragments","label":"personaOwnerFeeRate","offset":0,"slot":"55","type":"t_uint256"},{"astId":56834,"contract":"src/social/PersonaFragments.sol:PersonaFragments","label":"balance","offset":0,"slot":"56","type":"t_mapping(t_address,t_mapping(t_address,t_uint256))"},{"astId":56838,"contract":"src/social/PersonaFragments.sol:PersonaFragments","label":"supply","offset":0,"slot":"57","type":"t_mapping(t_address,t_uint256)"}],"types":{"t_address":{"encoding":"inplace","label":"address","numberOfBytes":"20"},"t_address_payable":{"encoding":"inplace","label":"address payable","numberOfBytes":"20"},"t_array(t_uint256)50_storage":{"encoding":"inplace","label":"uint256[50]","numberOfBytes":"1600","base":"t_uint256"},"t_mapping(t_address,t_mapping(t_address,t_uint256))":{"encoding":"mapping","key":"t_address","label":"mapping(address => mapping(address => uint256))","numberOfBytes":"32","value":"t_mapping(t_address,t_uint256)"},"t_mapping(t_address,t_uint256)":{"encoding":"mapping","key":"t_address","label":"mapping(address => uint256)","numberOfBytes":"32","value":"t_uint256"},"t_uint256":{"encoding":"inplace","label":"uint256","numberOfBytes":"32"}}},"id":84}